{
  "_format": "hh-sol-artifact-1",
  "contractName": "decentralisedIdentityManagement",
  "sourceName": "contracts/decentralisedIdentityManagement.sol",
  "abi": [
    {
      "inputs": [],
      "name": "addUser",
      "outputs": [],
      "stateMutability": "nonpayable",
      "type": "function"
    },
    {
      "inputs": [],
      "name": "checkWhoHasEducationalCertificatesAccess",
      "outputs": [
        {
          "components": [
            {
              "internalType": "address[]",
              "name": "tempAddress",
              "type": "address[]"
            }
          ],
          "internalType": "struct decentralisedIdentityManagement.tempStruct",
          "name": "",
          "type": "tuple"
        }
      ],
      "stateMutability": "view",
      "type": "function"
    },
    {
      "inputs": [],
      "name": "checkWhoHasGovernmentIdAccess",
      "outputs": [
        {
          "components": [
            {
              "internalType": "address[]",
              "name": "tempAddress",
              "type": "address[]"
            }
          ],
          "internalType": "struct decentralisedIdentityManagement.tempStruct",
          "name": "",
          "type": "tuple"
        }
      ],
      "stateMutability": "view",
      "type": "function"
    },
    {
      "inputs": [],
      "name": "checkWhoHasMedicalRecordsAccess",
      "outputs": [
        {
          "components": [
            {
              "internalType": "address[]",
              "name": "tempAddress",
              "type": "address[]"
            }
          ],
          "internalType": "struct decentralisedIdentityManagement.tempStruct",
          "name": "",
          "type": "tuple"
        }
      ],
      "stateMutability": "view",
      "type": "function"
    },
    {
      "inputs": [],
      "name": "checkWhoHasgGeneralPhotosAccess",
      "outputs": [
        {
          "components": [
            {
              "internalType": "address[]",
              "name": "tempAddress",
              "type": "address[]"
            }
          ],
          "internalType": "struct decentralisedIdentityManagement.tempStruct",
          "name": "",
          "type": "tuple"
        }
      ],
      "stateMutability": "view",
      "type": "function"
    },
    {
      "inputs": [],
      "name": "getMyEducationalCertificates",
      "outputs": [
        {
          "internalType": "string[]",
          "name": "",
          "type": "string[]"
        }
      ],
      "stateMutability": "view",
      "type": "function"
    },
    {
      "inputs": [],
      "name": "getMyGeneralPhotos",
      "outputs": [
        {
          "internalType": "string[]",
          "name": "",
          "type": "string[]"
        }
      ],
      "stateMutability": "view",
      "type": "function"
    },
    {
      "inputs": [],
      "name": "getMyGovernmentIDs",
      "outputs": [
        {
          "internalType": "string[]",
          "name": "",
          "type": "string[]"
        }
      ],
      "stateMutability": "view",
      "type": "function"
    },
    {
      "inputs": [],
      "name": "getMyMedicalRecords",
      "outputs": [
        {
          "internalType": "string[]",
          "name": "",
          "type": "string[]"
        }
      ],
      "stateMutability": "view",
      "type": "function"
    },
    {
      "inputs": [
        {
          "internalType": "address",
          "name": "_allowed",
          "type": "address"
        }
      ],
      "name": "giveEducationalCertificatesAccess",
      "outputs": [],
      "stateMutability": "nonpayable",
      "type": "function"
    },
    {
      "inputs": [
        {
          "internalType": "address",
          "name": "_allowed",
          "type": "address"
        }
      ],
      "name": "giveGeneralPhotosAccess",
      "outputs": [],
      "stateMutability": "nonpayable",
      "type": "function"
    },
    {
      "inputs": [
        {
          "internalType": "address",
          "name": "_allowed",
          "type": "address"
        }
      ],
      "name": "giveGovernmentIdAccess",
      "outputs": [],
      "stateMutability": "nonpayable",
      "type": "function"
    },
    {
      "inputs": [
        {
          "internalType": "address",
          "name": "_allowed",
          "type": "address"
        }
      ],
      "name": "giveMedicalRecordsAccess",
      "outputs": [],
      "stateMutability": "nonpayable",
      "type": "function"
    },
    {
      "inputs": [
        {
          "internalType": "address",
          "name": "_unallow",
          "type": "address"
        }
      ],
      "name": "removeEducationalCertificatesAccess",
      "outputs": [],
      "stateMutability": "nonpayable",
      "type": "function"
    },
    {
      "inputs": [
        {
          "internalType": "address",
          "name": "_unallow",
          "type": "address"
        }
      ],
      "name": "removeGeneralPhotosAccess",
      "outputs": [],
      "stateMutability": "nonpayable",
      "type": "function"
    },
    {
      "inputs": [
        {
          "internalType": "address",
          "name": "_unallow",
          "type": "address"
        }
      ],
      "name": "removeGovernmentIdAccess",
      "outputs": [],
      "stateMutability": "nonpayable",
      "type": "function"
    },
    {
      "inputs": [
        {
          "internalType": "address",
          "name": "_unallow",
          "type": "address"
        }
      ],
      "name": "removeMedicalRecordsAccess",
      "outputs": [],
      "stateMutability": "nonpayable",
      "type": "function"
    },
    {
      "inputs": [
        {
          "internalType": "address",
          "name": "owner",
          "type": "address"
        }
      ],
      "name": "retrieveOtherGovernmentID",
      "outputs": [
        {
          "internalType": "string[]",
          "name": "",
          "type": "string[]"
        }
      ],
      "stateMutability": "view",
      "type": "function"
    },
    {
      "inputs": [
        {
          "internalType": "address",
          "name": "owner",
          "type": "address"
        }
      ],
      "name": "retrieveOthersEducationalCertificates",
      "outputs": [
        {
          "internalType": "string[]",
          "name": "",
          "type": "string[]"
        }
      ],
      "stateMutability": "view",
      "type": "function"
    },
    {
      "inputs": [
        {
          "internalType": "address",
          "name": "owner",
          "type": "address"
        }
      ],
      "name": "retrieveOthersGeneralPhotos",
      "outputs": [
        {
          "internalType": "string[]",
          "name": "",
          "type": "string[]"
        }
      ],
      "stateMutability": "view",
      "type": "function"
    },
    {
      "inputs": [
        {
          "internalType": "address",
          "name": "owner",
          "type": "address"
        }
      ],
      "name": "retrieveOthersMedicalRecords",
      "outputs": [
        {
          "internalType": "string[]",
          "name": "",
          "type": "string[]"
        }
      ],
      "stateMutability": "view",
      "type": "function"
    },
    {
      "inputs": [
        {
          "internalType": "string",
          "name": "_link",
          "type": "string"
        }
      ],
      "name": "uploadEducationalCertificates",
      "outputs": [],
      "stateMutability": "nonpayable",
      "type": "function"
    },
    {
      "inputs": [
        {
          "internalType": "string",
          "name": "_link",
          "type": "string"
        }
      ],
      "name": "uploadGeneralPhotos",
      "outputs": [],
      "stateMutability": "nonpayable",
      "type": "function"
    },
    {
      "inputs": [
        {
          "internalType": "string",
          "name": "_link",
          "type": "string"
        }
      ],
      "name": "uploadGovernmentID",
      "outputs": [],
      "stateMutability": "nonpayable",
      "type": "function"
    },
    {
      "inputs": [
        {
          "internalType": "string",
          "name": "_link",
          "type": "string"
        }
      ],
      "name": "uploadMedicalRecords",
      "outputs": [],
      "stateMutability": "nonpayable",
      "type": "function"
    }
  ],
  "bytecode": "0x608060405234801561001057600080fd5b50614d20806100206000396000f3fe608060405234801561001057600080fd5b50600436106101735760003560e01c80635b1f72ca116100de57806391a07be411610097578063c714ba2c11610071578063c714ba2c14610410578063cb04e73a1461042e578063d4925dfe1461044a578063ed7ef6691461046657610173565b806391a07be4146103a65780639e2ed903146103d65780639febd951146103f457610173565b80635b1f72ca146102ea5780636701d9ea1461030657806369f6a43c14610322578063822aa58c1461033e57806386f5878b1461036e5780638b39d2a11461038a57610173565b80632dfea174116101305780632dfea1741461023c57806339bbe89f1461026c578063415846a814610288578063455c928c146102a457806345d837f3146102ae5780634c0ad890146102cc57610173565b806302ce7da11461017857806312588369146101a857806317110de1146101c657806321312621146101e45780632284714514610202578063260751d514610220575b600080fd5b610192600480360381019061018d91906143a5565b610482565b60405161019f919061452d565b60405180910390f35b6101b06107bc565b6040516101bd9190614637565b60405180910390f35b6101ce610985565b6040516101db919061452d565b60405180910390f35b6101ec610b98565b6040516101f99190614637565b60405180910390f35b61020a610d7a565b604051610217919061452d565b60405180910390f35b61023a6004803603810190610235919061478e565b610f8d565b005b610256600480360381019061025191906143a5565b611106565b604051610263919061452d565b60405180910390f35b610286600480360381019061028191906143a5565b611440565b005b6102a2600480360381019061029d91906143a5565b6115e0565b005b6102ac611780565b005b6102b6611f9a565b6040516102c39190614637565b60405180910390f35b6102d461217c565b6040516102e19190614637565b60405180910390f35b61030460048036038101906102ff91906143a5565b61235e565b005b610320600480360381019061031b91906143a5565b612641565b005b61033c6004803603810190610337919061478e565b612924565b005b610358600480360381019061035391906143a5565b612a9d565b604051610365919061452d565b60405180910390f35b6103886004803603810190610383919061478e565b612dd7565b005b6103a4600480360381019061039f91906143a5565b612f50565b005b6103c060048036038101906103bb91906143a5565b6130f0565b6040516103cd919061452d565b60405180910390f35b6103de61342a565b6040516103eb919061452d565b60405180910390f35b61040e6004803603810190610409919061478e565b61363d565b005b6104186137b6565b604051610425919061452d565b60405180910390f35b610448600480360381019061044391906143a5565b6139c9565b005b610464600480360381019061045f91906143a5565b613cac565b005b610480600480360381019061047b91906143a5565b613f8f565b005b60606000805b600280549050811015610531578373ffffffffffffffffffffffffffffffffffffffff16600282815481106104c0576104bf6147d7565b5b90600052602060002090600a020160050160009054906101000a900473ffffffffffffffffffffffffffffffffffffffff1673ffffffffffffffffffffffffffffffffffffffff16141561051e5760018161051b919061483f565b91505b808061052990614895565b915050610488565b5060008111610575576040517f08c379a000000000000000000000000000000000000000000000000000000000815260040161056c9061493b565b60405180910390fd5b6000805b6002600184610588919061495b565b81548110610599576105986147d7565b5b90600052602060002090600a02016007018054905081101561066e5760026001846105c4919061495b565b815481106105d5576105d46147d7565b5b90600052602060002090600a020160070181815481106105f8576105f76147d7565b5b9060005260206000200160009054906101000a900473ffffffffffffffffffffffffffffffffffffffff1673ffffffffffffffffffffffffffffffffffffffff163373ffffffffffffffffffffffffffffffffffffffff16141561065b57600191505b808061066690614895565b915050610579565b50600181146106b2576040517f08c379a00000000000000000000000000000000000000000000000000000000081526004016106a990614a01565b60405180910390fd5b60026001836106c1919061495b565b815481106106d2576106d16147d7565b5b90600052602060002090600a0201600301805480602002602001604051908101604052809291908181526020016000905b828210156107af57838290600052602060002001805461072290614a50565b80601f016020809104026020016040519081016040528092919081815260200182805461074e90614a50565b801561079b5780601f106107705761010080835404028352916020019161079b565b820191906000526020600020905b81548152906001019060200180831161077e57829003601f168201915b505050505081526020019060010190610703565b5050505092505050919050565b6107c461412f565b6000805b60028054905081101561087157600281815481106107e9576107e86147d7565b5b90600052602060002090600a020160050160009054906101000a900473ffffffffffffffffffffffffffffffffffffffff1673ffffffffffffffffffffffffffffffffffffffff163373ffffffffffffffffffffffffffffffffffffffff16141561085e5760018161085b919061483f565b91505b808061086990614895565b9150506107c8565b50600081116108b5576040517f08c379a00000000000000000000000000000000000000000000000000000000081526004016108ac90614ace565b60405180910390fd5b6000604051806020016040528060026001856108d1919061495b565b815481106108e2576108e16147d7565b5b90600052602060002090600a020160070180548060200260200160405190810160405280929190818152602001828054801561097357602002820191906000526020600020905b8160009054906101000a900473ffffffffffffffffffffffffffffffffffffffff1673ffffffffffffffffffffffffffffffffffffffff1681526020019060010190808311610929575b50505050508152509050809250505090565b60606000805b600280549050811015610a4d57600281815481106109ac576109ab6147d7565b5b90600052602060002090600a020160050160009054906101000a900473ffffffffffffffffffffffffffffffffffffffff1673ffffffffffffffffffffffffffffffffffffffff163373ffffffffffffffffffffffffffffffffffffffff161415610a3a5760028181548110610a2557610a246147d7565b5b90600052602060002090600a02016000015491505b8080610a4590614895565b91505061098b565b5060008111610a91576040517f08c379a0000000000000000000000000000000000000000000000000000000008152600401610a8890614b3a565b60405180910390fd5b6002600182610aa0919061495b565b81548110610ab157610ab06147d7565b5b90600052602060002090600a0201600201805480602002602001604051908101604052809291908181526020016000905b82821015610b8e578382906000526020600020018054610b0190614a50565b80601f0160208091040260200160405190810160405280929190818152602001828054610b2d90614a50565b8015610b7a5780601f10610b4f57610100808354040283529160200191610b7a565b820191906000526020600020905b815481529060010190602001808311610b5d57829003601f168201915b505050505081526020019060010190610ae2565b5050505091505090565b610ba061412f565b6000805b600280549050811015610c665760028181548110610bc557610bc46147d7565b5b90600052602060002090600a020160050160009054906101000a900473ffffffffffffffffffffffffffffffffffffffff1673ffffffffffffffffffffffffffffffffffffffff163373ffffffffffffffffffffffffffffffffffffffff161415610c535760028181548110610c3e57610c3d6147d7565b5b90600052602060002090600a02016000015491505b8080610c5e90614895565b915050610ba4565b5060008111610caa576040517f08c379a0000000000000000000000000000000000000000000000000000000008152600401610ca190614ace565b60405180910390fd5b600060405180602001604052806002600185610cc6919061495b565b81548110610cd757610cd66147d7565b5b90600052602060002090600a0201600601805480602002602001604051908101604052809291908181526020018280548015610d6857602002820191906000526020600020905b8160009054906101000a900473ffffffffffffffffffffffffffffffffffffffff1673ffffffffffffffffffffffffffffffffffffffff1681526020019060010190808311610d1e575b50505050508152509050809250505090565b60606000805b600280549050811015610e425760028181548110610da157610da06147d7565b5b90600052602060002090600a020160050160009054906101000a900473ffffffffffffffffffffffffffffffffffffffff1673ffffffffffffffffffffffffffffffffffffffff163373ffffffffffffffffffffffffffffffffffffffff161415610e2f5760028181548110610e1a57610e196147d7565b5b90600052602060002090600a02016000015491505b8080610e3a90614895565b915050610d80565b5060008111610e86576040517f08c379a0000000000000000000000000000000000000000000000000000000008152600401610e7d90614b3a565b60405180910390fd5b6002600182610e95919061495b565b81548110610ea657610ea56147d7565b5b90600052602060002090600a0201600401805480602002602001604051908101604052809291908181526020016000905b82821015610f83578382906000526020600020018054610ef690614a50565b80601f0160208091040260200160405190810160405280929190818152602001828054610f2290614a50565b8015610f6f5780601f10610f4457610100808354040283529160200191610f6f565b820191906000526020600020905b815481529060010190602001808311610f5257829003601f168201915b505050505081526020019060010190610ed7565b5050505091505090565b6000805b6002805490508110156110535760028181548110610fb257610fb16147d7565b5b90600052602060002090600a020160050160009054906101000a900473ffffffffffffffffffffffffffffffffffffffff1673ffffffffffffffffffffffffffffffffffffffff163373ffffffffffffffffffffffffffffffffffffffff161415611040576002818154811061102b5761102a6147d7565b5b90600052602060002090600a02016000015491505b808061104b90614895565b915050610f91565b5060008111611097576040517f08c379a000000000000000000000000000000000000000000000000000000000815260040161108e90614ba6565b60405180910390fd5b60026001826110a6919061495b565b815481106110b7576110b66147d7565b5b90600052602060002090600a020160030182908060018154018082558091505060019003906000526020600020016000909190919091509080519060200190611101929190614142565b505050565b60606000805b6002805490508110156111b5578373ffffffffffffffffffffffffffffffffffffffff1660028281548110611144576111436147d7565b5b90600052602060002090600a020160050160009054906101000a900473ffffffffffffffffffffffffffffffffffffffff1673ffffffffffffffffffffffffffffffffffffffff1614156111a25760018161119f919061483f565b91505b80806111ad90614895565b91505061110c565b50600081116111f9576040517f08c379a00000000000000000000000000000000000000000000000000000000081526004016111f09061493b565b60405180910390fd5b6000805b600260018461120c919061495b565b8154811061121d5761121c6147d7565b5b90600052602060002090600a0201600801805490508110156112f2576002600184611248919061495b565b81548110611259576112586147d7565b5b90600052602060002090600a0201600801818154811061127c5761127b6147d7565b5b9060005260206000200160009054906101000a900473ffffffffffffffffffffffffffffffffffffffff1673ffffffffffffffffffffffffffffffffffffffff163373ffffffffffffffffffffffffffffffffffffffff1614156112df57600191505b80806112ea90614895565b9150506111fd565b5060018114611336576040517f08c379a000000000000000000000000000000000000000000000000000000000815260040161132d90614a01565b60405180910390fd5b6002600183611345919061495b565b81548110611356576113556147d7565b5b90600052602060002090600a0201600101805480602002602001604051908101604052809291908181526020016000905b828210156114335783829060005260206000200180546113a690614a50565b80601f01602080910402602001604051908101604052809291908181526020018280546113d290614a50565b801561141f5780601f106113f45761010080835404028352916020019161141f565b820191906000526020600020905b81548152906001019060200180831161140257829003601f168201915b505050505081526020019060010190611387565b5050505092505050919050565b6000805b6002805490508110156115065760028181548110611465576114646147d7565b5b90600052602060002090600a020160050160009054906101000a900473ffffffffffffffffffffffffffffffffffffffff1673ffffffffffffffffffffffffffffffffffffffff163373ffffffffffffffffffffffffffffffffffffffff1614156114f357600281815481106114de576114dd6147d7565b5b90600052602060002090600a02016000015491505b80806114fe90614895565b915050611444565b506000811161154a576040517f08c379a000000000000000000000000000000000000000000000000000000000815260040161154190614ace565b60405180910390fd5b6002600182611559919061495b565b8154811061156a576115696147d7565b5b90600052602060002090600a0201600601829080600181540180825580915050600190039060005260206000200160009091909190916101000a81548173ffffffffffffffffffffffffffffffffffffffff021916908373ffffffffffffffffffffffffffffffffffffffff1602179055505050565b6000805b6002805490508110156116a65760028181548110611605576116046147d7565b5b90600052602060002090600a020160050160009054906101000a900473ffffffffffffffffffffffffffffffffffffffff1673ffffffffffffffffffffffffffffffffffffffff163373ffffffffffffffffffffffffffffffffffffffff161415611693576002818154811061167e5761167d6147d7565b5b90600052602060002090600a02016000015491505b808061169e90614895565b9150506115e4565b50600081116116ea576040517f08c379a00000000000000000000000000000000000000000000000000000000081526004016116e190614ace565b60405180910390fd5b60026001826116f9919061495b565b8154811061170a576117096147d7565b5b90600052602060002090600a0201600801829080600181540180825580915050600190039060005260206000200160009091909190916101000a81548173ffffffffffffffffffffffffffffffffffffffff021916908373ffffffffffffffffffffffffffffffffffffffff1602179055505050565b6000805b60028054905081101561182257600281815481106117a5576117a46147d7565b5b90600052602060002090600a020160050160009054906101000a900473ffffffffffffffffffffffffffffffffffffffff1673ffffffffffffffffffffffffffffffffffffffff163373ffffffffffffffffffffffffffffffffffffffff16141561180f57600191505b808061181a90614895565b915050611784565b5060008114611866576040517f08c379a000000000000000000000000000000000000000000000000000000000815260040161185d90614c38565b60405180910390fd5b60026040518061014001604052806001600280549050611886919061483f565b81526020016001805480602002602001604051908101604052809291908181526020016000905b828210156119595783829060005260206000200180546118cc90614a50565b80601f01602080910402602001604051908101604052809291908181526020018280546118f890614a50565b80156119455780601f1061191a57610100808354040283529160200191611945565b820191906000526020600020905b81548152906001019060200180831161192857829003601f168201915b5050505050815260200190600101906118ad565b5050505081526020016001805480602002602001604051908101604052809291908181526020016000905b82821015611a305783829060005260206000200180546119a390614a50565b80601f01602080910402602001604051908101604052809291908181526020018280546119cf90614a50565b8015611a1c5780601f106119f157610100808354040283529160200191611a1c565b820191906000526020600020905b8154815290600101906020018083116119ff57829003601f168201915b505050505081526020019060010190611984565b5050505081526020016001805480602002602001604051908101604052809291908181526020016000905b82821015611b07578382906000526020600020018054611a7a90614a50565b80601f0160208091040260200160405190810160405280929190818152602001828054611aa690614a50565b8015611af35780601f10611ac857610100808354040283529160200191611af3565b820191906000526020600020905b815481529060010190602001808311611ad657829003601f168201915b505050505081526020019060010190611a5b565b5050505081526020016001805480602002602001604051908101604052809291908181526020016000905b82821015611bde578382906000526020600020018054611b5190614a50565b80601f0160208091040260200160405190810160405280929190818152602001828054611b7d90614a50565b8015611bca5780601f10611b9f57610100808354040283529160200191611bca565b820191906000526020600020905b815481529060010190602001808311611bad57829003601f168201915b505050505081526020019060010190611b32565b5050505081526020013373ffffffffffffffffffffffffffffffffffffffff1681526020016000805480602002602001604051908101604052809291908181526020018280548015611c8557602002820191906000526020600020905b8160009054906101000a900473ffffffffffffffffffffffffffffffffffffffff1673ffffffffffffffffffffffffffffffffffffffff1681526020019060010190808311611c3b575b505050505081526020016000805480602002602001604051908101604052809291908181526020018280548015611d1157602002820191906000526020600020905b8160009054906101000a900473ffffffffffffffffffffffffffffffffffffffff1673ffffffffffffffffffffffffffffffffffffffff1681526020019060010190808311611cc7575b505050505081526020016000805480602002602001604051908101604052809291908181526020018280548015611d9d57602002820191906000526020600020905b8160009054906101000a900473ffffffffffffffffffffffffffffffffffffffff1673ffffffffffffffffffffffffffffffffffffffff1681526020019060010190808311611d53575b505050505081526020016000805480602002602001604051908101604052809291908181526020018280548015611e2957602002820191906000526020600020905b8160009054906101000a900473ffffffffffffffffffffffffffffffffffffffff1673ffffffffffffffffffffffffffffffffffffffff1681526020019060010190808311611ddf575b505050505081525090806001815401808255809150506001900390600052602060002090600a0201600090919091909150600082015181600001556020820151816001019080519060200190611e809291906141c8565b506040820151816002019080519060200190611e9d9291906141c8565b506060820151816003019080519060200190611eba9291906141c8565b506080820151816004019080519060200190611ed79291906141c8565b5060a08201518160050160006101000a81548173ffffffffffffffffffffffffffffffffffffffff021916908373ffffffffffffffffffffffffffffffffffffffff16021790555060c0820151816006019080519060200190611f3b929190614228565b5060e0820151816007019080519060200190611f58929190614228565b50610100820151816008019080519060200190611f76929190614228565b50610120820151816009019080519060200190611f94929190614228565b50505050565b611fa261412f565b6000805b6002805490508110156120685760028181548110611fc757611fc66147d7565b5b90600052602060002090600a020160050160009054906101000a900473ffffffffffffffffffffffffffffffffffffffff1673ffffffffffffffffffffffffffffffffffffffff163373ffffffffffffffffffffffffffffffffffffffff16141561205557600281815481106120405761203f6147d7565b5b90600052602060002090600a02016000015491505b808061206090614895565b915050611fa6565b50600081116120ac576040517f08c379a00000000000000000000000000000000000000000000000000000000081526004016120a390614ace565b60405180910390fd5b6000604051806020016040528060026001856120c8919061495b565b815481106120d9576120d86147d7565b5b90600052602060002090600a020160080180548060200260200160405190810160405280929190818152602001828054801561216a57602002820191906000526020600020905b8160009054906101000a900473ffffffffffffffffffffffffffffffffffffffff1673ffffffffffffffffffffffffffffffffffffffff1681526020019060010190808311612120575b50505050508152509050809250505090565b61218461412f565b6000805b60028054905081101561224a57600281815481106121a9576121a86147d7565b5b90600052602060002090600a020160050160009054906101000a900473ffffffffffffffffffffffffffffffffffffffff1673ffffffffffffffffffffffffffffffffffffffff163373ffffffffffffffffffffffffffffffffffffffff1614156122375760028181548110612222576122216147d7565b5b90600052602060002090600a02016000015491505b808061224290614895565b915050612188565b506000811161228e576040517f08c379a000000000000000000000000000000000000000000000000000000000815260040161228590614ace565b60405180910390fd5b6000604051806020016040528060026001856122aa919061495b565b815481106122bb576122ba6147d7565b5b90600052602060002090600a020160090180548060200260200160405190810160405280929190818152602001828054801561234c57602002820191906000526020600020905b8160009054906101000a900473ffffffffffffffffffffffffffffffffffffffff1673ffffffffffffffffffffffffffffffffffffffff1681526020019060010190808311612302575b50505050508152509050809250505090565b6000805b6002805490508110156124245760028181548110612383576123826147d7565b5b90600052602060002090600a020160050160009054906101000a900473ffffffffffffffffffffffffffffffffffffffff1673ffffffffffffffffffffffffffffffffffffffff163373ffffffffffffffffffffffffffffffffffffffff16141561241157600281815481106123fc576123fb6147d7565b5b90600052602060002090600a02016000015491505b808061241c90614895565b915050612362565b5060008111612468576040517f08c379a000000000000000000000000000000000000000000000000000000000815260040161245f90614ace565b60405180910390fd5b60008060005b600260018561247d919061495b565b8154811061248e5761248d6147d7565b5b90600052602060002090600a02016008018054905081101561256a578473ffffffffffffffffffffffffffffffffffffffff1660026001866124d0919061495b565b815481106124e1576124e06147d7565b5b90600052602060002090600a02016008018281548110612504576125036147d7565b5b9060005260206000200160009054906101000a900473ffffffffffffffffffffffffffffffffffffffff1673ffffffffffffffffffffffffffffffffffffffff161415612557576001925080915061256a565b808061256290614895565b91505061246e565b50600182146125ae576040517f08c379a00000000000000000000000000000000000000000000000000000000081526004016125a590614cca565b60405180910390fd5b600060026001856125bf919061495b565b815481106125d0576125cf6147d7565b5b90600052602060002090600a020160080182815481106125f3576125f26147d7565b5b9060005260206000200160006101000a81548173ffffffffffffffffffffffffffffffffffffffff021916908373ffffffffffffffffffffffffffffffffffffffff16021790555050505050565b6000805b6002805490508110156127075760028181548110612666576126656147d7565b5b90600052602060002090600a020160050160009054906101000a900473ffffffffffffffffffffffffffffffffffffffff1673ffffffffffffffffffffffffffffffffffffffff163373ffffffffffffffffffffffffffffffffffffffff1614156126f457600281815481106126df576126de6147d7565b5b90600052602060002090600a02016000015491505b80806126ff90614895565b915050612645565b506000811161274b576040517f08c379a000000000000000000000000000000000000000000000000000000000815260040161274290614ace565b60405180910390fd5b60008060005b6002600185612760919061495b565b81548110612771576127706147d7565b5b90600052602060002090600a02016007018054905081101561284d578473ffffffffffffffffffffffffffffffffffffffff1660026001866127b3919061495b565b815481106127c4576127c36147d7565b5b90600052602060002090600a020160070182815481106127e7576127e66147d7565b5b9060005260206000200160009054906101000a900473ffffffffffffffffffffffffffffffffffffffff1673ffffffffffffffffffffffffffffffffffffffff16141561283a576001925080915061284d565b808061284590614895565b915050612751565b5060018214612891576040517f08c379a000000000000000000000000000000000000000000000000000000000815260040161288890614cca565b60405180910390fd5b600060026001856128a2919061495b565b815481106128b3576128b26147d7565b5b90600052602060002090600a020160070182815481106128d6576128d56147d7565b5b9060005260206000200160006101000a81548173ffffffffffffffffffffffffffffffffffffffff021916908373ffffffffffffffffffffffffffffffffffffffff16021790555050505050565b6000805b6002805490508110156129ea5760028181548110612949576129486147d7565b5b90600052602060002090600a020160050160009054906101000a900473ffffffffffffffffffffffffffffffffffffffff1673ffffffffffffffffffffffffffffffffffffffff163373ffffffffffffffffffffffffffffffffffffffff1614156129d757600281815481106129c2576129c16147d7565b5b90600052602060002090600a02016000015491505b80806129e290614895565b915050612928565b5060008111612a2e576040517f08c379a0000000000000000000000000000000000000000000000000000000008152600401612a2590614ba6565b60405180910390fd5b6002600182612a3d919061495b565b81548110612a4e57612a4d6147d7565b5b90600052602060002090600a020160020182908060018154018082558091505060019003906000526020600020016000909190919091509080519060200190612a98929190614142565b505050565b60606000805b600280549050811015612b4c578373ffffffffffffffffffffffffffffffffffffffff1660028281548110612adb57612ada6147d7565b5b90600052602060002090600a020160050160009054906101000a900473ffffffffffffffffffffffffffffffffffffffff1673ffffffffffffffffffffffffffffffffffffffff161415612b3957600181612b36919061483f565b91505b8080612b4490614895565b915050612aa3565b5060008111612b90576040517f08c379a0000000000000000000000000000000000000000000000000000000008152600401612b879061493b565b60405180910390fd5b6000805b6002600184612ba3919061495b565b81548110612bb457612bb36147d7565b5b90600052602060002090600a020160090180549050811015612c89576002600184612bdf919061495b565b81548110612bf057612bef6147d7565b5b90600052602060002090600a02016009018181548110612c1357612c126147d7565b5b9060005260206000200160009054906101000a900473ffffffffffffffffffffffffffffffffffffffff1673ffffffffffffffffffffffffffffffffffffffff163373ffffffffffffffffffffffffffffffffffffffff161415612c7657600191505b8080612c8190614895565b915050612b94565b5060018114612ccd576040517f08c379a0000000000000000000000000000000000000000000000000000000008152600401612cc490614a01565b60405180910390fd5b6002600183612cdc919061495b565b81548110612ced57612cec6147d7565b5b90600052602060002090600a0201600401805480602002602001604051908101604052809291908181526020016000905b82821015612dca578382906000526020600020018054612d3d90614a50565b80601f0160208091040260200160405190810160405280929190818152602001828054612d6990614a50565b8015612db65780601f10612d8b57610100808354040283529160200191612db6565b820191906000526020600020905b815481529060010190602001808311612d9957829003601f168201915b505050505081526020019060010190612d1e565b5050505092505050919050565b6000805b600280549050811015612e9d5760028181548110612dfc57612dfb6147d7565b5b90600052602060002090600a020160050160009054906101000a900473ffffffffffffffffffffffffffffffffffffffff1673ffffffffffffffffffffffffffffffffffffffff163373ffffffffffffffffffffffffffffffffffffffff161415612e8a5760028181548110612e7557612e746147d7565b5b90600052602060002090600a02016000015491505b8080612e9590614895565b915050612ddb565b5060008111612ee1576040517f08c379a0000000000000000000000000000000000000000000000000000000008152600401612ed890614ba6565b60405180910390fd5b6002600182612ef0919061495b565b81548110612f0157612f006147d7565b5b90600052602060002090600a020160040182908060018154018082558091505060019003906000526020600020016000909190919091509080519060200190612f4b929190614142565b505050565b6000805b6002805490508110156130165760028181548110612f7557612f746147d7565b5b90600052602060002090600a020160050160009054906101000a900473ffffffffffffffffffffffffffffffffffffffff1673ffffffffffffffffffffffffffffffffffffffff163373ffffffffffffffffffffffffffffffffffffffff1614156130035760028181548110612fee57612fed6147d7565b5b90600052602060002090600a02016000015491505b808061300e90614895565b915050612f54565b506000811161305a576040517f08c379a000000000000000000000000000000000000000000000000000000000815260040161305190614ace565b60405180910390fd5b6002600182613069919061495b565b8154811061307a576130796147d7565b5b90600052602060002090600a0201600701829080600181540180825580915050600190039060005260206000200160009091909190916101000a81548173ffffffffffffffffffffffffffffffffffffffff021916908373ffffffffffffffffffffffffffffffffffffffff1602179055505050565b60606000805b60028054905081101561319f578373ffffffffffffffffffffffffffffffffffffffff166002828154811061312e5761312d6147d7565b5b90600052602060002090600a020160050160009054906101000a900473ffffffffffffffffffffffffffffffffffffffff1673ffffffffffffffffffffffffffffffffffffffff16141561318c57600181613189919061483f565b91505b808061319790614895565b9150506130f6565b50600081116131e3576040517f08c379a00000000000000000000000000000000000000000000000000000000081526004016131da9061493b565b60405180910390fd5b6000805b60026001846131f6919061495b565b81548110613207576132066147d7565b5b90600052602060002090600a0201600601805490508110156132dc576002600184613232919061495b565b81548110613243576132426147d7565b5b90600052602060002090600a02016006018181548110613266576132656147d7565b5b9060005260206000200160009054906101000a900473ffffffffffffffffffffffffffffffffffffffff1673ffffffffffffffffffffffffffffffffffffffff163373ffffffffffffffffffffffffffffffffffffffff1614156132c957600191505b80806132d490614895565b9150506131e7565b5060018114613320576040517f08c379a000000000000000000000000000000000000000000000000000000000815260040161331790614a01565b60405180910390fd5b600260018361332f919061495b565b815481106133405761333f6147d7565b5b90600052602060002090600a0201600201805480602002602001604051908101604052809291908181526020016000905b8282101561341d57838290600052602060002001805461339090614a50565b80601f01602080910402602001604051908101604052809291908181526020018280546133bc90614a50565b80156134095780601f106133de57610100808354040283529160200191613409565b820191906000526020600020905b8154815290600101906020018083116133ec57829003601f168201915b505050505081526020019060010190613371565b5050505092505050919050565b60606000805b6002805490508110156134f25760028181548110613451576134506147d7565b5b90600052602060002090600a020160050160009054906101000a900473ffffffffffffffffffffffffffffffffffffffff1673ffffffffffffffffffffffffffffffffffffffff163373ffffffffffffffffffffffffffffffffffffffff1614156134df57600281815481106134ca576134c96147d7565b5b90600052602060002090600a02016000015491505b80806134ea90614895565b915050613430565b5060008111613536576040517f08c379a000000000000000000000000000000000000000000000000000000000815260040161352d90614b3a565b60405180910390fd5b6002600182613545919061495b565b81548110613556576135556147d7565b5b90600052602060002090600a0201600101805480602002602001604051908101604052809291908181526020016000905b828210156136335783829060005260206000200180546135a690614a50565b80601f01602080910402602001604051908101604052809291908181526020018280546135d290614a50565b801561361f5780601f106135f45761010080835404028352916020019161361f565b820191906000526020600020905b81548152906001019060200180831161360257829003601f168201915b505050505081526020019060010190613587565b5050505091505090565b6000805b6002805490508110156137035760028181548110613662576136616147d7565b5b90600052602060002090600a020160050160009054906101000a900473ffffffffffffffffffffffffffffffffffffffff1673ffffffffffffffffffffffffffffffffffffffff163373ffffffffffffffffffffffffffffffffffffffff1614156136f057600281815481106136db576136da6147d7565b5b90600052602060002090600a02016000015491505b80806136fb90614895565b915050613641565b5060008111613747576040517f08c379a000000000000000000000000000000000000000000000000000000000815260040161373e90614ba6565b60405180910390fd5b6002600182613756919061495b565b81548110613767576137666147d7565b5b90600052602060002090600a0201600101829080600181540180825580915050600190039060005260206000200160009091909190915090805190602001906137b1929190614142565b505050565b60606000805b60028054905081101561387e57600281815481106137dd576137dc6147d7565b5b90600052602060002090600a020160050160009054906101000a900473ffffffffffffffffffffffffffffffffffffffff1673ffffffffffffffffffffffffffffffffffffffff163373ffffffffffffffffffffffffffffffffffffffff16141561386b5760028181548110613856576138556147d7565b5b90600052602060002090600a02016000015491505b808061387690614895565b9150506137bc565b50600081116138c2576040517f08c379a00000000000000000000000000000000000000000000000000000000081526004016138b990614b3a565b60405180910390fd5b60026001826138d1919061495b565b815481106138e2576138e16147d7565b5b90600052602060002090600a0201600301805480602002602001604051908101604052809291908181526020016000905b828210156139bf57838290600052602060002001805461393290614a50565b80601f016020809104026020016040519081016040528092919081815260200182805461395e90614a50565b80156139ab5780601f10613980576101008083540402835291602001916139ab565b820191906000526020600020905b81548152906001019060200180831161398e57829003601f168201915b505050505081526020019060010190613913565b5050505091505090565b6000805b600280549050811015613a8f57600281815481106139ee576139ed6147d7565b5b90600052602060002090600a020160050160009054906101000a900473ffffffffffffffffffffffffffffffffffffffff1673ffffffffffffffffffffffffffffffffffffffff163373ffffffffffffffffffffffffffffffffffffffff161415613a7c5760028181548110613a6757613a666147d7565b5b90600052602060002090600a02016000015491505b8080613a8790614895565b9150506139cd565b5060008111613ad3576040517f08c379a0000000000000000000000000000000000000000000000000000000008152600401613aca90614ace565b60405180910390fd5b60008060005b6002600185613ae8919061495b565b81548110613af957613af86147d7565b5b90600052602060002090600a020160060180549050811015613bd5578473ffffffffffffffffffffffffffffffffffffffff166002600186613b3b919061495b565b81548110613b4c57613b4b6147d7565b5b90600052602060002090600a02016006018281548110613b6f57613b6e6147d7565b5b9060005260206000200160009054906101000a900473ffffffffffffffffffffffffffffffffffffffff1673ffffffffffffffffffffffffffffffffffffffff161415613bc25760019250809150613bd5565b8080613bcd90614895565b915050613ad9565b5060018214613c19576040517f08c379a0000000000000000000000000000000000000000000000000000000008152600401613c1090614cca565b60405180910390fd5b60006002600185613c2a919061495b565b81548110613c3b57613c3a6147d7565b5b90600052602060002090600a02016006018281548110613c5e57613c5d6147d7565b5b9060005260206000200160006101000a81548173ffffffffffffffffffffffffffffffffffffffff021916908373ffffffffffffffffffffffffffffffffffffffff16021790555050505050565b6000805b600280549050811015613d725760028181548110613cd157613cd06147d7565b5b90600052602060002090600a020160050160009054906101000a900473ffffffffffffffffffffffffffffffffffffffff1673ffffffffffffffffffffffffffffffffffffffff163373ffffffffffffffffffffffffffffffffffffffff161415613d5f5760028181548110613d4a57613d496147d7565b5b90600052602060002090600a02016000015491505b8080613d6a90614895565b915050613cb0565b5060008111613db6576040517f08c379a0000000000000000000000000000000000000000000000000000000008152600401613dad90614ace565b60405180910390fd5b60008060005b6002600185613dcb919061495b565b81548110613ddc57613ddb6147d7565b5b90600052602060002090600a020160090180549050811015613eb8578473ffffffffffffffffffffffffffffffffffffffff166002600186613e1e919061495b565b81548110613e2f57613e2e6147d7565b5b90600052602060002090600a02016009018281548110613e5257613e516147d7565b5b9060005260206000200160009054906101000a900473ffffffffffffffffffffffffffffffffffffffff1673ffffffffffffffffffffffffffffffffffffffff161415613ea55760019250809150613eb8565b8080613eb090614895565b915050613dbc565b5060018214613efc576040517f08c379a0000000000000000000000000000000000000000000000000000000008152600401613ef390614cca565b60405180910390fd5b60006002600185613f0d919061495b565b81548110613f1e57613f1d6147d7565b5b90600052602060002090600a02016009018281548110613f4157613f406147d7565b5b9060005260206000200160006101000a81548173ffffffffffffffffffffffffffffffffffffffff021916908373ffffffffffffffffffffffffffffffffffffffff16021790555050505050565b6000805b6002805490508110156140555760028181548110613fb457613fb36147d7565b5b90600052602060002090600a020160050160009054906101000a900473ffffffffffffffffffffffffffffffffffffffff1673ffffffffffffffffffffffffffffffffffffffff163373ffffffffffffffffffffffffffffffffffffffff161415614042576002818154811061402d5761402c6147d7565b5b90600052602060002090600a02016000015491505b808061404d90614895565b915050613f93565b5060008111614099576040517f08c379a000000000000000000000000000000000000000000000000000000000815260040161409090614ace565b60405180910390fd5b60026001826140a8919061495b565b815481106140b9576140b86147d7565b5b90600052602060002090600a0201600901829080600181540180825580915050600190039060005260206000200160009091909190916101000a81548173ffffffffffffffffffffffffffffffffffffffff021916908373ffffffffffffffffffffffffffffffffffffffff1602179055505050565b6040518060200160405280606081525090565b82805461414e90614a50565b90600052602060002090601f01602090048101928261417057600085556141b7565b82601f1061418957805160ff19168380011785556141b7565b828001600101855582156141b7579182015b828111156141b657825182559160200191906001019061419b565b5b5090506141c491906142b2565b5090565b828054828255906000526020600020908101928215614217579160200282015b82811115614216578251829080519060200190614206929190614142565b50916020019190600101906141e8565b5b50905061422491906142cf565b5090565b8280548282559060005260206000209081019282156142a1579160200282015b828111156142a05782518260006101000a81548173ffffffffffffffffffffffffffffffffffffffff021916908373ffffffffffffffffffffffffffffffffffffffff16021790555091602001919060010190614248565b5b5090506142ae91906142b2565b5090565b5b808211156142cb5760008160009055506001016142b3565b5090565b5b808211156142ef57600081816142e691906142f3565b506001016142d0565b5090565b5080546142ff90614a50565b6000825580601f106143115750614330565b601f01602090049060005260206000209081019061432f91906142b2565b5b50565b6000604051905090565b600080fd5b600080fd5b600073ffffffffffffffffffffffffffffffffffffffff82169050919050565b600061437282614347565b9050919050565b61438281614367565b811461438d57600080fd5b50565b60008135905061439f81614379565b92915050565b6000602082840312156143bb576143ba61433d565b5b60006143c984828501614390565b91505092915050565b600081519050919050565b600082825260208201905092915050565b6000819050602082019050919050565b600081519050919050565b600082825260208201905092915050565b60005b8381101561443857808201518184015260208101905061441d565b83811115614447576000848401525b50505050565b6000601f19601f8301169050919050565b6000614469826143fe565b6144738185614409565b935061448381856020860161441a565b61448c8161444d565b840191505092915050565b60006144a3838361445e565b905092915050565b6000602082019050919050565b60006144c3826143d2565b6144cd81856143dd565b9350836020820285016144df856143ee565b8060005b8581101561451b57848403895281516144fc8582614497565b9450614507836144ab565b925060208a019950506001810190506144e3565b50829750879550505050505092915050565b6000602082019050818103600083015261454781846144b8565b905092915050565b600081519050919050565b600082825260208201905092915050565b6000819050602082019050919050565b61458481614367565b82525050565b6000614596838361457b565b60208301905092915050565b6000602082019050919050565b60006145ba8261454f565b6145c4818561455a565b93506145cf8361456b565b8060005b838110156146005781516145e7888261458a565b97506145f2836145a2565b9250506001810190506145d3565b5085935050505092915050565b6000602083016000830151848203600086015261462a82826145af565b9150508091505092915050565b60006020820190508181036000830152614651818461460d565b905092915050565b600080fd5b600080fd5b7f4e487b7100000000000000000000000000000000000000000000000000000000600052604160045260246000fd5b61469b8261444d565b810181811067ffffffffffffffff821117156146ba576146b9614663565b5b80604052505050565b60006146cd614333565b90506146d98282614692565b919050565b600067ffffffffffffffff8211156146f9576146f8614663565b5b6147028261444d565b9050602081019050919050565b82818337600083830152505050565b600061473161472c846146de565b6146c3565b90508281526020810184848401111561474d5761474c61465e565b5b61475884828561470f565b509392505050565b600082601f83011261477557614774614659565b5b813561478584826020860161471e565b91505092915050565b6000602082840312156147a4576147a361433d565b5b600082013567ffffffffffffffff8111156147c2576147c1614342565b5b6147ce84828501614760565b91505092915050565b7f4e487b7100000000000000000000000000000000000000000000000000000000600052603260045260246000fd5b6000819050919050565b7f4e487b7100000000000000000000000000000000000000000000000000000000600052601160045260246000fd5b600061484a82614806565b915061485583614806565b9250827fffffffffffffffffffffffffffffffffffffffffffffffffffffffffffffffff0382111561488a57614889614810565b5b828201905092915050565b60006148a082614806565b91507fffffffffffffffffffffffffffffffffffffffffffffffffffffffffffffffff8214156148d3576148d2614810565b5b600182019050919050565b600082825260208201905092915050565b7f5573657220646f6573206e6f7420657869737400000000000000000000000000600082015250565b60006149256013836148de565b9150614930826148ef565b602082019050919050565b6000602082019050818103600083015261495481614918565b9050919050565b600061496682614806565b915061497183614806565b92508282101561498457614983614810565b5b828203905092915050565b7f596f7520646f206e6f7420686176652061636365737320746f2074686573652060008201527f66696c6573000000000000000000000000000000000000000000000000000000602082015250565b60006149eb6025836148de565b91506149f68261498f565b604082019050919050565b60006020820190508181036000830152614a1a816149de565b9050919050565b7f4e487b7100000000000000000000000000000000000000000000000000000000600052602260045260246000fd5b60006002820490506001821680614a6857607f821691505b60208210811415614a7c57614a7b614a21565b5b50919050565b7f596f7520617265206e6f74207265676973746572656400000000000000000000600082015250565b6000614ab86016836148de565b9150614ac382614a82565b602082019050919050565b60006020820190508181036000830152614ae781614aab565b9050919050565b7f2055736572206e6f7420666f756e642000000000000000000000000000000000600082015250565b6000614b246010836148de565b9150614b2f82614aee565b602082019050919050565b60006020820190508181036000830152614b5381614b17565b9050919050565b7f55736572206e6f7420666f756e64000000000000000000000000000000000000600082015250565b6000614b90600e836148de565b9150614b9b82614b5a565b602082019050919050565b60006020820190508181036000830152614bbf81614b83565b9050919050565b7f5573657220776974682074686973206163636f756e7420616c7265616479206560008201527f7869737473000000000000000000000000000000000000000000000000000000602082015250565b6000614c226025836148de565b9150614c2d82614bc6565b604082019050919050565b60006020820190508181036000830152614c5181614c15565b9050919050565b7f54686973206164647265737320646f65736e6f7420686176652061636365737360008201527f206f722061636365737320616c72656164792072656d6f766564000000000000602082015250565b6000614cb4603a836148de565b9150614cbf82614c58565b604082019050919050565b60006020820190508181036000830152614ce381614ca7565b905091905056fea2646970667358221220e95ea44f4cbc934fd3069cf079efc183ebe651eda42af2d1959b166ab86435dc64736f6c63430008090033",
  "linkReferences": {},
  "deployedLinkReferences": {}
}